{
  "_format": "hh-sol-artifact-1",
  "contractName": "MultiSignatureFactory",
  "sourceName": "contracts/MultiSignatureFactory.sol",
  "abi": [
    {
      "inputs": [
        {
          "internalType": "uint256",
          "name": "_quorum",
          "type": "uint256"
        },
        {
          "internalType": "address[]",
          "name": "_validSigners",
          "type": "address[]"
        }
      ],
      "name": "createMultisigWallet",
      "outputs": [
        {
          "internalType": "contract MultiSignature",
          "name": "newMulsig_",
          "type": "address"
        },
        {
          "internalType": "uint256",
          "name": "length_",
          "type": "uint256"
        }
      ],
      "stateMutability": "nonpayable",
      "type": "function"
    },
    {
      "inputs": [],
      "name": "getMultiSigClones",
      "outputs": [
        {
          "internalType": "contract MultiSignature[]",
          "name": "",
          "type": "address[]"
        }
      ],
      "stateMutability": "view",
      "type": "function"
    }
  ],
  "bytecode": "0x608060405234801561001057600080fd5b506126aa806100206000396000f3fe60806040523480156200001157600080fd5b50600436106200003a5760003560e01c8063109dd5e9146200003f578063daebf2081462000061575b600080fd5b6200004962000098565b60405162000058919062000330565b60405180910390f35b6200007f60048036038101906200007991906200055d565b62000128565b6040516200008f929190620005e5565b60405180910390f35b606060008054806020026020016040519081016040528092919081815260200182805480156200011e57602002820191906000526020600020905b8160009054906101000a900473ffffffffffffffffffffffffffffffffffffffff1673ffffffffffffffffffffffffffffffffffffffff1681526020019060010190808311620000d3575b5050505050905090565b60008083836040516200013b90620001da565b62000148929190620006cf565b604051809103906000f08015801562000165573d6000803e3d6000fd5b5091506000829080600181540180825580915050600190039060005260206000200160009091909190916101000a81548173ffffffffffffffffffffffffffffffffffffffff021916908373ffffffffffffffffffffffffffffffffffffffff16021790555060008054905090509250929050565b611f71806200070483390190565b600081519050919050565b600082825260208201905092915050565b6000819050602082019050919050565b600073ffffffffffffffffffffffffffffffffffffffff82169050919050565b6000819050919050565b60006200025f62000259620002538462000214565b62000234565b62000214565b9050919050565b600062000273826200023e565b9050919050565b6000620002878262000266565b9050919050565b62000299816200027a565b82525050565b6000620002ad83836200028e565b60208301905092915050565b6000602082019050919050565b6000620002d382620001e8565b620002df8185620001f3565b9350620002ec8362000204565b8060005b83811015620003235781516200030788826200029f565b97506200031483620002b9565b925050600181019050620002f0565b5085935050505092915050565b600060208201905081810360008301526200034c8184620002c6565b905092915050565b6000604051905090565b600080fd5b600080fd5b6000819050919050565b6200037d8162000368565b81146200038957600080fd5b50565b6000813590506200039d8162000372565b92915050565b600080fd5b6000601f19601f8301169050919050565b7f4e487b7100000000000000000000000000000000000000000000000000000000600052604160045260246000fd5b620003f382620003a8565b810181811067ffffffffffffffff82111715620004155762000414620003b9565b5b80604052505050565b60006200042a62000354565b9050620004388282620003e8565b919050565b600067ffffffffffffffff8211156200045b576200045a620003b9565b5b602082029050602081019050919050565b600080fd5b60006200047e8262000214565b9050919050565b620004908162000471565b81146200049c57600080fd5b50565b600081359050620004b08162000485565b92915050565b6000620004cd620004c7846200043d565b6200041e565b90508083825260208201905060208402830185811115620004f357620004f26200046c565b5b835b818110156200052057806200050b88826200049f565b845260208401935050602081019050620004f5565b5050509392505050565b600082601f830112620005425762000541620003a3565b5b813562000554848260208601620004b6565b91505092915050565b600080604083850312156200057757620005766200035e565b5b600062000587858286016200038c565b925050602083013567ffffffffffffffff811115620005ab57620005aa62000363565b5b620005b9858286016200052a565b9150509250929050565b620005ce816200027a565b82525050565b620005df8162000368565b82525050565b6000604082019050620005fc6000830185620005c3565b6200060b6020830184620005d4565b9392505050565b600081519050919050565b6000819050602082019050919050565b620006388162000471565b82525050565b60006200064c83836200062d565b60208301905092915050565b6000602082019050919050565b6000620006728262000612565b6200067e8185620001f3565b93506200068b836200061d565b8060005b83811015620006c2578151620006a688826200063e565b9750620006b38362000658565b9250506001810190506200068f565b5085935050505092915050565b6000604082019050620006e66000830185620005d4565b8181036020830152620006fa818462000665565b9050939250505056fe60806040523480156200001157600080fd5b5060405162001f7138038062001f71833981810160405281019062000037919062000573565b60018151116200007e576040517f08c379a000000000000000000000000000000000000000000000000000000000815260040162000075906200063a565b60405180910390fd5b60018211620000c4576040517f08c379a0000000000000000000000000000000000000000000000000000000008152600401620000bb90620006ac565b60405180910390fd5b60005b8151811015620001e357600073ffffffffffffffffffffffffffffffffffffffff16828281518110620000ff57620000fe620006ce565b5b602002602001015173ffffffffffffffffffffffffffffffffffffffff160362000160576040517f08c379a000000000000000000000000000000000000000000000000000000000815260040162000157906200074d565b60405180910390fd5b6001600360008484815181106200017c576200017b620006ce565b5b602002602001015173ffffffffffffffffffffffffffffffffffffffff1673ffffffffffffffffffffffffffffffffffffffff16815260200190815260200160002060006101000a81548160ff0219169083151502179055508080600101915050620000c7565b508051600160006101000a81548160ff021916908360ff160217905550600360003373ffffffffffffffffffffffffffffffffffffffff1673ffffffffffffffffffffffffffffffffffffffff16815260200190815260200160002060009054906101000a900460ff16620002e3576001600360003373ffffffffffffffffffffffffffffffffffffffff1673ffffffffffffffffffffffffffffffffffffffff16815260200190815260200160002060006101000a81548160ff02191690831515021790555060018060008282829054906101000a900460ff16620002ca9190620007ab565b92506101000a81548160ff021916908360ff1602179055505b600160009054906101000a900460ff1660ff168211156200033b576040517f08c379a000000000000000000000000000000000000000000000000000000000815260040162000332906200085d565b60405180910390fd5b8160008190555050506200087f565b6000604051905090565b600080fd5b600080fd5b6000819050919050565b62000373816200035e565b81146200037f57600080fd5b50565b600081519050620003938162000368565b92915050565b600080fd5b6000601f19601f8301169050919050565b7f4e487b7100000000000000000000000000000000000000000000000000000000600052604160045260246000fd5b620003e9826200039e565b810181811067ffffffffffffffff821117156200040b576200040a620003af565b5b80604052505050565b6000620004206200034a565b90506200042e8282620003de565b919050565b600067ffffffffffffffff821115620004515762000450620003af565b5b602082029050602081019050919050565b600080fd5b600073ffffffffffffffffffffffffffffffffffffffff82169050919050565b6000620004948262000467565b9050919050565b620004a68162000487565b8114620004b257600080fd5b50565b600081519050620004c6816200049b565b92915050565b6000620004e3620004dd8462000433565b62000414565b9050808382526020820190506020840283018581111562000509576200050862000462565b5b835b81811015620005365780620005218882620004b5565b8452602084019350506020810190506200050b565b5050509392505050565b600082601f83011262000558576200055762000399565b5b81516200056a848260208601620004cc565b91505092915050565b600080604083850312156200058d576200058c62000354565b5b60006200059d8582860162000382565b925050602083015167ffffffffffffffff811115620005c157620005c062000359565b5b620005cf8582860162000540565b9150509250929050565b600082825260208201905092915050565b7f6665772076616c6964207369676e657273000000000000000000000000000000600082015250565b600062000622601183620005d9565b91506200062f82620005ea565b602082019050919050565b60006020820190508181036000830152620006558162000613565b9050919050565b7f71756f72756d20697320746f6f20736d616c6c00000000000000000000000000600082015250565b600062000694601383620005d9565b9150620006a1826200065c565b602082019050919050565b60006020820190508181036000830152620006c78162000685565b9050919050565b7f4e487b7100000000000000000000000000000000000000000000000000000000600052603260045260246000fd5b7f496e76616c6964205369676e6572204164647265737300000000000000000000600082015250565b600062000735601683620005d9565b91506200074282620006fd565b602082019050919050565b60006020820190508181036000830152620007688162000726565b9050919050565b600060ff82169050919050565b7f4e487b7100000000000000000000000000000000000000000000000000000000600052601160045260246000fd5b6000620007b8826200076f565b9150620007c5836200076f565b9250828201905060ff811115620007e157620007e06200077c565b5b92915050565b7f71756f72756d2067726561746572207468616e2076616c6964207369676e657260008201527f7300000000000000000000000000000000000000000000000000000000000000602082015250565b600062000845602183620005d9565b91506200085282620007e7565b604082019050919050565b60006020820190508181036000830152620008788162000836565b9050919050565b6116e2806200088f6000396000f3fe608060405234801561001057600080fd5b50600436106100625760003560e01c80631087393a146100675780631703a0181461008357806317eff51b146100a15780633c540687146100bf578063ccb570e3146100dd578063d40cfc51146100f9575b600080fd5b610081600480360381019061007c9190610dfb565b610115565b005b61008b61065f565b6040516100989190610e37565b60405180910390f35b6100a9610665565b6040516100b69190610e6e565b60405180910390f35b6100c7610678565b6040516100d49190610e37565b60405180910390f35b6100f760048036038101906100f29190610ee7565b61067e565b005b610113600480360381019061010e9190610f66565b61096b565b005b60006004600083815260200190815260200160002090508060030160149054906101000a900460ff161561017e576040517f08c379a000000000000000000000000000000000000000000000000000000000815260040161017590610ff0565b60405180910390fd5b60008160000154036101c5576040517f08c379a00000000000000000000000000000000000000000000000000000000081526004016101bc9061105c565b60405180910390fd5b8060070160009054906101000a900473ffffffffffffffffffffffffffffffffffffffff1673ffffffffffffffffffffffffffffffffffffffff166370a08231306040518263ffffffff1660e01b8152600401610222919061108b565b602060405180830381865afa15801561023f573d6000803e3d6000fd5b505050506040513d601f19601f8201168201806040525081019061026391906110bb565b816001015411156102a9576040517f08c379a00000000000000000000000000000000000000000000000000000000081526004016102a090611134565b60405180910390fd5b6000548160060154106102f1576040517f08c379a00000000000000000000000000000000000000000000000000000000081526004016102e8906111a0565b60405180910390fd5b600560003373ffffffffffffffffffffffffffffffffffffffff1673ffffffffffffffffffffffffffffffffffffffff168152602001908152602001600020600083815260200190815260200160002060009054906101000a900460ff161561038f576040517f08c379a00000000000000000000000000000000000000000000000000000000081526004016103869061120c565b60405180910390fd5b600360003373ffffffffffffffffffffffffffffffffffffffff1673ffffffffffffffffffffffffffffffffffffffff16815260200190815260200160002060009054906101000a900460ff1661041b576040517f08c379a000000000000000000000000000000000000000000000000000000000815260040161041290611278565b60405180910390fd5b6001600560003373ffffffffffffffffffffffffffffffffffffffff1673ffffffffffffffffffffffffffffffffffffffff168152602001908152602001600020600084815260200190815260200160002060006101000a81548160ff021916908315150217905550600181600601600082825461049991906112c7565b9250508190555080600801339080600181540180825580915050600190039060005260206000200160009091909190916101000a81548173ffffffffffffffffffffffffffffffffffffffff021916908373ffffffffffffffffffffffffffffffffffffffff16021790555060006001811115610519576105186112fb565b5b8160090160009054906101000a900460ff16600181111561053d5761053c6112fb565b5b03610612578060070160009054906101000a900473ffffffffffffffffffffffffffffffffffffffff1673ffffffffffffffffffffffffffffffffffffffff1663a9059cbb8260030160009054906101000a900473ffffffffffffffffffffffffffffffffffffffff1683600101546040518363ffffffff1660e01b81526004016105c992919061132a565b6020604051808303816000875af11580156105e8573d6000803e3d6000fd5b505050506040513d601f19601f8201168201806040525081019061060c919061138b565b5061065b565b600180811115610625576106246112fb565b5b8160090160009054906101000a900460ff166001811115610649576106486112fb565b5b0361065a5780600a01546000819055505b5b5050565b60005481565b600160009054906101000a900460ff1681565b60025481565b600073ffffffffffffffffffffffffffffffffffffffff163373ffffffffffffffffffffffffffffffffffffffff16036106ed576040517f08c379a00000000000000000000000000000000000000000000000000000000081526004016106e490611404565b60405180910390fd5b600360003373ffffffffffffffffffffffffffffffffffffffff1673ffffffffffffffffffffffffffffffffffffffff16815260200190815260200160002060009054906101000a900460ff16610779576040517f08c379a000000000000000000000000000000000000000000000000000000000815260040161077090611470565b60405180910390fd5b600083116107bc576040517f08c379a00000000000000000000000000000000000000000000000000000000081526004016107b3906114dc565b60405180910390fd5b600073ffffffffffffffffffffffffffffffffffffffff168273ffffffffffffffffffffffffffffffffffffffff160361082b576040517f08c379a000000000000000000000000000000000000000000000000000000000815260040161082290611404565b60405180910390fd5b600073ffffffffffffffffffffffffffffffffffffffff168173ffffffffffffffffffffffffffffffffffffffff160361089a576040517f08c379a000000000000000000000000000000000000000000000000000000000815260040161089190611404565b60405180910390fd5b828173ffffffffffffffffffffffffffffffffffffffff166370a08231306040518263ffffffff1660e01b81526004016108d4919061108b565b602060405180830381865afa1580156108f1573d6000803e3d6000fd5b505050506040513d601f19601f8201168201806040525081019061091591906110bb565b1015610956576040517f08c379a000000000000000000000000000000000000000000000000000000000815260040161094d90611548565b60405180910390fd5b6109668360008333866000610b18565b505050565b60008160ff16116109b1576040517f08c379a00000000000000000000000000000000000000000000000000000000081526004016109a8906115b4565b60405180910390fd5b600160009054906101000a900460ff1660ff168160ff161115610a09576040517f08c379a0000000000000000000000000000000000000000000000000000000008152600401610a0090611620565b60405180910390fd5b600073ffffffffffffffffffffffffffffffffffffffff163373ffffffffffffffffffffffffffffffffffffffff1603610a78576040517f08c379a0000000000000000000000000000000000000000000000000000000008152600401610a6f9061168c565b60405180910390fd5b600360003373ffffffffffffffffffffffffffffffffffffffff1673ffffffffffffffffffffffffffffffffffffffff16815260200190815260200160002060009054906101000a900460ff16610b04576040517f08c379a0000000000000000000000000000000000000000000000000000000008152600401610afb90611278565b60405180910390fd5b610b15600060016000333386610b18565b50565b600073ffffffffffffffffffffffffffffffffffffffff168373ffffffffffffffffffffffffffffffffffffffff1603610b50573392505b600073ffffffffffffffffffffffffffffffffffffffff168273ffffffffffffffffffffffffffffffffffffffff1603610b88573391505b60006001600254610b9991906112c7565b90506000600460008381526020019081526020016000209050818160000181905550878160010181905550848160020160006101000a81548173ffffffffffffffffffffffffffffffffffffffff021916908373ffffffffffffffffffffffffffffffffffffffff160217905550838160030160006101000a81548173ffffffffffffffffffffffffffffffffffffffff021916908373ffffffffffffffffffffffffffffffffffffffff160217905550428160040181905550858160070160006101000a81548173ffffffffffffffffffffffffffffffffffffffff021916908373ffffffffffffffffffffffffffffffffffffffff16021790555080600801339080600181540180825580915050600190039060005260206000200160009091909190916101000a81548173ffffffffffffffffffffffffffffffffffffffff021916908373ffffffffffffffffffffffffffffffffffffffff160217905550868160090160006101000a81548160ff02191690836001811115610d2257610d216112fb565b5b02179055508260ff1681600a01819055506001600560003373ffffffffffffffffffffffffffffffffffffffff1673ffffffffffffffffffffffffffffffffffffffff168152602001908152602001600020600084815260200190815260200160002060006101000a81548160ff021916908315150217905550600160026000828254610daf91906112c7565b925050819055505050505050505050565b600080fd5b6000819050919050565b610dd881610dc5565b8114610de357600080fd5b50565b600081359050610df581610dcf565b92915050565b600060208284031215610e1157610e10610dc0565b5b6000610e1f84828501610de6565b91505092915050565b610e3181610dc5565b82525050565b6000602082019050610e4c6000830184610e28565b92915050565b600060ff82169050919050565b610e6881610e52565b82525050565b6000602082019050610e836000830184610e5f565b92915050565b600073ffffffffffffffffffffffffffffffffffffffff82169050919050565b6000610eb482610e89565b9050919050565b610ec481610ea9565b8114610ecf57600080fd5b50565b600081359050610ee181610ebb565b92915050565b600080600060608486031215610f0057610eff610dc0565b5b6000610f0e86828701610de6565b9350506020610f1f86828701610ed2565b9250506040610f3086828701610ed2565b9150509250925092565b610f4381610e52565b8114610f4e57600080fd5b50565b600081359050610f6081610f3a565b92915050565b600060208284031215610f7c57610f7b610dc0565b5b6000610f8a84828501610f51565b91505092915050565b600082825260208201905092915050565b7f5472616e73616374696f6e20616c726561647920636f6d706c657465642e0000600082015250565b6000610fda601e83610f93565b9150610fe582610fa4565b602082019050919050565b6000602082019050818103600083015261100981610fcd565b9050919050565b7f496e76616c6964207472616e73616374696f6e20496400000000000000000000600082015250565b6000611046601683610f93565b915061105182611010565b602082019050919050565b6000602082019050818103600083015261107581611039565b9050919050565b61108581610ea9565b82525050565b60006020820190506110a0600083018461107c565b92915050565b6000815190506110b581610dcf565b92915050565b6000602082840312156110d1576110d0610dc0565b5b60006110df848285016110a6565b91505092915050565b7f496e73756666696369656e742066756e64732e00000000000000000000000000600082015250565b600061111e601383610f93565b9150611129826110e8565b602082019050919050565b6000602082019050818103600083015261114d81611111565b9050919050565b7f417070726f76616c20616c726561647920726561636865642e00000000000000600082015250565b600061118a601983610f93565b915061119582611154565b602082019050919050565b600060208201905081810360008301526111b98161117d565b9050919050565b7f43616e2774207369676e2074776963652e000000000000000000000000000000600082015250565b60006111f6601183610f93565b9150611201826111c0565b602082019050919050565b60006020820190508181036000830152611225816111e9565b9050919050565b7f4e6f7420612076616c6964207369676e65722e00000000000000000000000000600082015250565b6000611262601383610f93565b915061126d8261122c565b602082019050919050565b6000602082019050818103600083015261129181611255565b9050919050565b7f4e487b7100000000000000000000000000000000000000000000000000000000600052601160045260246000fd5b60006112d282610dc5565b91506112dd83610dc5565b92508282019050808211156112f5576112f4611298565b5b92915050565b7f4e487b7100000000000000000000000000000000000000000000000000000000600052602160045260246000fd5b600060408201905061133f600083018561107c565b61134c6020830184610e28565b9392505050565b60008115159050919050565b61136881611353565b811461137357600080fd5b50565b6000815190506113858161135f565b92915050565b6000602082840312156113a1576113a0610dc0565b5b60006113af84828501611376565b91505092915050565b7f61646472657373207a65726f20666f756e640000000000000000000000000000600082015250565b60006113ee601283610f93565b91506113f9826113b8565b602082019050919050565b6000602082019050818103600083015261141d816113e1565b9050919050565b7f696e76616c6964207369676e6572000000000000000000000000000000000000600082015250565b600061145a600e83610f93565b915061146582611424565b602082019050919050565b600060208201905081810360008301526114898161144d565b9050919050565b7f63616e27742073656e64207a65726f20616d6f756e7400000000000000000000600082015250565b60006114c6601683610f93565b91506114d182611490565b602082019050919050565b600060208201905081810360008301526114f5816114b9565b9050919050565b7f696e73756666696369656e742066756e64730000000000000000000000000000600082015250565b6000611532601283610f93565b915061153d826114fc565b602082019050919050565b6000602082019050818103600083015261156181611525565b9050919050565b7f51756f72756d2063616e6e6f74206265207a65726f0000000000000000000000600082015250565b600061159e601583610f93565b91506115a982611568565b602082019050919050565b600060208201905081810360008301526115cd81611591565b9050919050565b7f4e65772069732067726561746572207468616e207369676e6572732e00000000600082015250565b600061160a601c83610f93565b9150611615826115d4565b602082019050919050565b60006020820190508181036000830152611639816115fd565b9050919050565b7f41646472657373207a65726f2064657465637465642e00000000000000000000600082015250565b6000611676601683610f93565b915061168182611640565b602082019050919050565b600060208201905081810360008301526116a581611669565b905091905056fea2646970667358221220119a763bdb44bcb8ac442f00bee91fbdccb4691cdde41f036e553f1af1aced9964736f6c63430008180033a264697066735822122034a9f52c57a2ddd1fcb363f77b175cbbf5bbee3dfea4f47dc4b30600ca2cb61464736f6c63430008180033",
  "linkReferences": {},
  "deployedLinkReferences": {}
}